:08000000803102288731F52F41
:100E0800163021009700080022000C140C1008006E
:100E180022000C140C140C140C1008007A30210059
:100E280099009A01980124009D01080087313C2708
:100E380087318731122787318731042787310800A6
:100E4800F1007C08F0007008F2007108F0007008EA
:100E5800F20072080800720887319B2787317108F1
:100E680087319B278731730887319B278731080093
:100E780022008C018E01363021008C003F308E001C
:100E88000F3023008E0016308C0024008C018E0158
:100E98002100951725008C018E01373026008C0023
:100EA8003F308E003F3027008C003F308E00080016
:100EB80087311A27873120002308F6002408F70015
:100EC8002508F8003230873124278731F400740868
:100ED800F60020002008F9002108FA002208FB008B
:100EE8003230873124278731F4007408FA007608F5
:100EF800F1007708F2007808F30087312F2787314F
:100F08007908F1007A08F2007B08F30087312F276F
:100F180087310B30F5002630F4005E30890B922FB4
:100F2800F40B922FF50B922F7B2F80310228F000C3
:100F3800F01F9F2FA02FA42F87310C278731A72FB1
:100F4800873108278731701FAA2FAB2FAF2F873122
:100F58000C278731B22F873108278731F01EB52F2C
:100F6800B62FBA2F87310C278731BD2F8731082735
:100F78008731701EC02FC12FC52F87310C278731AD
:100F8800C82F873108278731F01DCB2FCC2FD02FC2
:100F980087310C278731D32F873108278731701D78
:100FA800D62FD72FDB2F87310C278731DE2F8731BC
:100FB80008278731F01CE12FE22FE62F87310C2715
:100FC8008731E92F873108278731701CEC2FED2FE7
:100FD800F12F87310C278731F42F87310827873184
:100FE8000800FC012000A001A101A201A301A401A5
:080FF800A501200087315C2FE8
:020000040001F9
:08000000FF3FFF3FFF3FFF3F00
:04000E00E43FFF3E8E
:00000001FF
